:100000000C9434000C9440000C943E000C943E0080
:100010000C943E000C943E000C943E000C943E0068
:100020000C943E000C943E000C943E000C943E0058
:100030000C943E000C943E000C943E000C943E0048
:100040000C943E000C943E000C943E000C943E0038
:100050000C943E000C943E000C943E000C943E0028
:100060000C943E000C943E0011241FBECFEFD8E04C
:10007000DEBFCDBF0E9470000C9481000C94000084
:100080001F920F920FB60F9211242F938F939F936D
:100090002FEF83ED90E3215080409040E1F700C0C6
:1000A000000085B18C6385B92FEF83ED90E321507B
:1000B00080409040E1F700C0000085B115B82FEFF7
:1000C00083ED90E3215080409040E1F700C00000B4
:1000D0009F918F912F910F900FBE0F901F901895A9
:1000E00084B18C6384B95298809169008260809356
:1000F0006900809169008160809369007894E89A32
:06010000FFCFF894FFCFD1
:00000001FF
