:100000000C9434000C9448000C946D000C94460041
:100010000C9446000C9446000C9446000C94460048
:100020000C9446000C9446000C9446000C94460038
:100030000C9446000C9446000C9446000C94460028
:100040000C9446000C9446000C9446000C94460018
:100050000C9446000C9446000C9446000C94460008
:100060000C9446000C94460011241FBECFEFD8E03C
:10007000DEBFCDBF21E0A0E0B1E001C01D92A13004
:10008000B207E1F70E9493000C94B2000C940000B8
:100090001F920F920FB60F9211242F938F939F935D
:1000A0002FEF85EA9EE0215080409040E1F700C0AC
:1000B000000085B1880F85B92FEF81E19AE72150C3
:1000C00080409040E1F700C000009F918F912F91F8
:1000D0000F900FBE0F901F9018951F920F920FB6A2
:1000E0000F9211242F938F939F932FEF85EA9EE019
:1000F000215080409040E1F700C0000085B1880F9A
:1001000085B9289A2FEF81E19AE7215080409040ED
:10011000E1F700C000009F918F912F910F900FBECB
:100120000F901F90189584B18F6084B98AB1837F36
:100130008AB980916900826080936900809169002A
:100140008160809369008091690088608093690074
:100150008091690084608093690078948DB3836096
:080160008DBBFFCFF894FFCF27
:00000001FF
