:100000000C9434000C9448000C9446000C94460068
:100010000C9446000C9446000C9446000C94460048
:100020000C9446000C9446000C9446000C94460038
:100030000C9446000C9446000C9446000C94460028
:100040000C9446000C9446000C9446000C94460018
:100050000C9446000C9446000C9446000C94460008
:100060000C9446000C94460011241FBECFEFD8E03C
:10007000DEBFCDBF21E0A0E0B1E001C01D92A13004
:10008000B207E1F70E9467000C9478000C9400001E
:100090001F920F920FB60F9211242F938F939F935D
:1000A000809100018F5F8093000185B92FEF81E17E
:1000B0009AE7215080409040E1F700C000009F91F6
:1000C0008F912F910F900FBE0F901F90189584B1B4
:1000D0008F6084B952988091690082608093690032
:1000E000809169008E7F809369007894E89AFFCFB1
:0400F000F894FFCFB2
:00000001FF
