:100000000C9434000C943E000C943E000C943E0082
:100010000C943E000C943E000C943E000C943E0068
:100020000C943E000C943E000C943E000C943E0058
:100030000C943E000C943E000C943E000C943E0048
:100040000C943E000C943E000C943E000C943E0038
:100050000C943E000C943E000C943E000C943E0028
:100060000C943E000C943E0011241FBECFEFD8E04C
:10007000DEBFCDBF0E9440000C945A000C940000DB
:1000800084B18F6084B9579890E080E029B1322F15
:10009000307827FD0DC0992359F08F5F85B92FEF78
:1000A00045EA9EE0215040409040E1F700C000004A
:0800B000932FECCFF894FFCF71
:00000001FF
