:100000000C9434000C943E000C943E000C943E0082
:100010000C943E000C943E000C943E000C943E0068
:100020000C943E000C943E000C943E000C943E0058
:100030000C943E000C943E000C943E000C943E0048
:100040000C943E000C943E000C943E000C943E0038
:100050000C943E000C943E000C943E000C943E0028
:100060000C943E000C943E0011241FBECFEFD8E04C
:10007000DEBFCDBF0E9440000C94AF000C94000086
:1000800084B18C6384B941E050E060E274E082E0C6
:1000900090E08230A9F52A9A2AE035B1372735B9A0
:1000A0003FEFE3ECF9E03150E040F040E1F700C011
:1000B0000000215091F715B82FEF33ECE9E0215003
:1000C0003040E040E1F700C0000001968630910525
:1000D00001F72C9A3FEF83EC99E03150804090403B
:1000E000E1F700C0000015B82B9AEFEFF3EC29E020
:1000F000E150F0402040E1F700C0000015B8C7CF44
:100100008530C9F42D9A2AE035B1362735B9FFEF8D
:1001100033ECE9E0F1503040E040E1F700C000008E
:10012000215091F715B8FFEF23EC39E0F150204052
:100130003040E1F7C8CF25B1FA01082E01C0EE0F1B
:100140000A94EAF72E2B25B9EFEFF3EC29E0E15002
:10015000F0402040E1F700C0000015B8B6CFF89499
:02016000FFCFCF
:00000001FF
