:100000000C9434000C943E000C943E000C943E0082
:100010000C943E000C943E000C943E000C943E0068
:100020000C943E000C943E000C943E000C943E0058
:100030000C943E000C943E000C943E000C943E0048
:100040000C943E000C943E000C943E000C943E0038
:100050000C943E000C943E000C943E000C943E0028
:100060000C943E000C943E0011241FBECFEFD8E04C
:10007000DEBFCDBF0E944B000C9457000C940000D3
:1000800016BC14BC81E085BDA89BFECF14BC15BC7A
:1000900081E085BB089584B18F6084B985B18F609C
:1000A00085B985B1809585B90E944000FACFF89452
:0200B000FFCF80
:00000001FF
